:020000040800F2
:1000000010070020C1010008D7140008CD13000814
:10001000D5140008CD020008851500080000000076
:10002000000000000000000000000000DB140008D9
:100030003103000800000000D9140008DD14000896
:10004000DB010008DB010008DB010008DB01000820
:10005000DB010008DB010008DB010008DB01000810
:10006000DB010008DB010008DB010008DB01000800
:10007000DB010008DB010008DB010008DB010008F0
:10008000DB010008DB010008DB010008DB010008E0
:10009000D1020008DD020008DB010008DB010008D6
:1000A000DB010008DB010008DB010008DB010008C0
:1000B000DB010008DB010008DB010008DB010008B0
:1000C000DB010008DB010008DB010008DB010008A0
:1000D000DB010008DB010008DB010008DB01000890
:1000E000DB010008DB010008DB010008DB01000880
:1000F000DB010008DB010008DB010008DB01000870
:10010000DB010008DB010008DB010008DB0100085F
:10011000DB010008DB010008DB010008DB0100084F
:10012000DB010008DB010008DB010008DB0100083F
:10013000DB010008DB010008DB010008DB0100082F
:10014000DB010008DB010008DB010008DB0100081F
:10015000DB010008DB010008DB010008DB0100080F
:10016000DB010008DB010008DB010008DB010008FF
:10017000DB010008DB010008DB01000800000000D3
:10018000DB010008DB010008DB010008DB010008DF
:10019000DB010008DB010008DB010008DB010008CF
:1001A0000000000000000000DB010008DFF80CD0B8
:1001B00000F07AF8004800475117000810070020A7
:1001C0000648804706480047FEE7FEE7FEE7FEE7F1
:1001D000FEE7FEE7FEE7FEE7FEE7FEE7751500082F
:1001E000AD0100082DE9F05F0546002092469B46D0
:1001F00088460646814640241BE02846414647463D
:10020000224600F041F853465A46C01A914110D395
:1002100011461846224600F028F82D1A67EB01080F
:100220004F4622460120002100F01FF817EB00097D
:100230004E41201EA4F10104DFDC484631462A4627
:100240004346BDE8F09FD2B201E000F8012B491E01
:10025000FBD270470022F6E710B513460A46044663
:100260001946FFF7F0FF204610BD202A04DB203A94
:1002700000FA02F1002070479140C2F1200320FAF9
:1002800003F3194390407047202A04DB203A21FAF7
:1002900002F00021704721FA02F3D040C2F120029F
:1002A0009140084319467047064C074D06E0E06848
:1002B00040F0010394E8070098471034AC42F6D3AD
:1002C000FFF778FFEC1A00080C1B0008FEE700009F
:1002D000014800F0A2B9000020020020014800F00F
:1002E0009CB900002002002038B50E4C4FF4007578
:1002F00025600025A560E560082525610A4C050AF2
:1003000025706070080AA070E170100A2071627197
:10031000180AA071E3716B4622460249034800F0B7
:100320001CF838BDF802002029000020200200201F
:10033000704772B6FEE790F82020012A07D0022A03
:1003400005D0416A41F48021416201207047006874
:1003500042690A43426100207047F0B590F820508E
:100360000468A468012D05D0022D03D0416A41F430
:1003700080214DE014F0406F01D1E50045D5C4F374
:1003800001640125A5401D608D684FF4C0739DB1C7
:10039000CE6835434E6845EAC605066803EB041788
:1003A000F5514FF4C275076805EB04150E697E51CF
:1003B000097D012905D009E00E88CD6845EA46553A
:1003C000EBE701684E5946F480764E511179D2F828
:1003D00005504FF4C67641EA0521056806EB041680
:1003E000A9511178D2F801204FF4C47541EA0221D5
:1003F000026805EB04155151006803EB04114258E3
:1004000042F0010242500020F0BD416A41F4001167
:1004100041620120F0BD000010B590F82020012AB3
:1004200007D0022A05D0416A41F4802141620120AF
:1004300010BD3B48D0F8002242F00102C0F8002273
:10044000D0F8002222F47C52C0F80022D0F800221A
:100450004B6A42EA0322C0F800220A7D02F01F0321
:1004600001229A40D0F81C329343C0F81C32CB6969
:10047000B3B9D0F80C329343C0F80C328C894B6876
:1004800064F31F434C6900EBC404C4F840320C8988
:100490000B6864F31F434C6900EBC404C4F8443296
:1004A000CB69012B16D1D0F80C321343C0F80C32B3
:1004B0000C884B6864F31F434C6900EBC404C4F818
:1004C00040320C89CB6864F31F434C6900EBC404D1
:1004D000C4F844328B69002BD0F804320ED0134399
:1004E000C0F804320B69002BD0F8143208D0134343
:1004F000C0F81432096A012904D008E09343EFE7F9
:100500009343F5E7D0F81C121143C0F81C12D0F841
:10051000001221F00101C0F80012002010BD0000FF
:1005200000640040704770B590F82040012C05D061
:10053000022C03D0416A41F4802128E0046809B309
:100540002469A40720D04FF4D874056804EB011483
:100550002D5915F00405956005682D591AD0ED0840
:10056000556005682C5904F00204D4604FF4DA7425
:10057000056804EB01142E5906F00F06082E0CD363
:1005800008250DE0E468DCE7416A41F400114162AE
:10059000012070BD6D0D1560E3E72D5905F00F05C5
:1005A000156105682D59C5F30725956105682C5916
:1005B000240C54614FF4DC72046802EB0112A4585D
:1005C0001C700468A458240A5C700468A458240CA5
:1005D0009C700468A258120EDA704FF4DE72046840
:1005E00002EB0112A4581C710468A458240A5C711F
:1005F0000468A458240C9C710468A258120EDA7185
:10060000006829B1016941F020010161002070BD3D
:10061000C16841F02001C160F8E72DE9F05F0546AF
:10062000006800244669D0F804908768D0F80CB0C0
:10063000D0F810A0D0F81880F10748D0F90714D0EE
:1006400001218160B80703D5284600F050FA0CE07C
:10065000780702D54FF4006407E0380702D54FF45D
:10066000805402E0284600F041FAF80516D52968C2
:100670004FF480708860B80503D5284600F039FA39
:100680000CE0780502D544F4005407E0380502D5A3
:1006900044F4804402E0284600F02AFAF80316D514
:1006A00029684FF480308860B80303D5284600F0ED
:1006B00022FA0CE0780302D544F4004407E0380342
:1006C00002D544F4803402E0284600F013FA3007E3
:1006D00007D55FEACB6004D52968102044F4007484
:1006E000C86070074FF0080707D55FEA0B7004D5A4
:1006F0002868C760284600F09BF9B00706D528682F
:10070000C068800702D0284600F094F9700607D52B
:100710005FEACA6004D52968102044F48064086147
:10072000B00607D55FEA0A7004D528680761284635
:1007300000F0ACF9F00606D528680069800702D001
:10074000284600F0A4F9B00308D55FEAC96005D5D2
:10075000296810204860284600F09AF9F00307D570
:100760005FEA097004D528684760284600F0C4F99C
:10077000300446D55FEA497040D5F00504D55FEAFC
:10078000C87001D044F00104B00504D55FEA887058
:1007900001D544F00204700504D55FEA487001D524
:1007A00044F00404300529D518F0700F26D008F065
:1007B0007000402815D006DC102809D020280AD067
:1007C000302816D10AE050280ED0602811D10EE052
:1007D00044F008040DE044F010040AE044F0200462
:1007E00007E044F0400404E044F0800401E044F4F5
:1007F00080742868816921F0700181612968042072
:100800004860002C05D0686A204368622846FFF7DC
:1008100089FEBDE8F09F70B5040003D094F8200075
:1008200010B104E0012070BD204600F081F820687E
:10083000016841F00101016000F092FA05460526C9
:1008400004E000F08DFA401B0A2811D820684068A7
:10085000C007F6D02068016821F00201016000F0B5
:100860007FFA05460BE000F07BFA401B0A2806D908
:10087000606A40F40030606284F82060D2E720684B
:1008800040688007EFD4207E0128206801683DD0B1
:1008900021F080010160607E01282068016838D065
:1008A00021F040010160A07E01282068016833D05A
:1008B00021F020010160E07E0128206801682ED02F
:1008C00041F010010160207F01282068016829D0D3
:1008D00021F008010160607F01282068016824D0B0
:1008E00021F004010160D4E902010843D4E90412B3
:1008F000114308436168491E08432168C86100200C
:100900006062012084F82000002070BD41F0800169
:10091000C0E741F04001C5E741F02001CAE721F0FE
:100920001001CFE741F00801D4E741F00401D9E715
:10093000F0B587B0044614216846FFF78BFC374BAF
:100940003748DFF8D4E01968D4F800C0344A0325EA
:100950000226092710300024491CF4452DD11960C6
:10096000012907D1016841F000710160006800F0C1
:1009700000700590106840F0080010601068CDE924
:10098000005600F00800CDE9047069462548CDE91D
:10099000024500F0C5F800221146142000F04EFA7E
:1009A000142000F03DFA00221146152000F046FA0E
:1009B000152000F035FA07B0F0BDDFF86CE0F44523
:1009C000F9D1D0F800C04CF0806CC0F800C0D0F86D
:1009D00000C001290CF0806CCDF814C0196007D15B
:1009E000016841F000710160006800F0007005903E
:1009F000106840F002001060106802AB00F00200C6
:100A000005904FF44050CDE9000683E8B0006946F8
:100A1000064800F085F8CEE7006400400C00002096
:100A200030380240000C02400068004000040240E0
:100A30007047000000B58BB001AB03AA0021FFF79F
:100A400072FD0398A0F20120062818D80D49C0B203
:100A500008700D4901EB001001880181BDF80410F8
:100A600049BA0180BDF8061049BA4180BDF80810A6
:100A700049BA81809DF80A10817100F049FE0BB0DF
:100A800000BD000020000020700200207047704769
:100A90007047000070B5044690F82000012804D08B
:100AA000606A40F40020606218E0022084F82000B0
:100AB0002068016821F00101016000F051F905464C
:100AC0000EE000BF00F04CF9401B0A2808D9606A0C
:100AD00040F400306062052084F82000012070BDE1
:100AE00020684068C007EDD1606270BD70477047F4
:100AF00070477047704770477047000070B50446F4
:100B000000F02EF90546601C02D004480078044429
:100B100000F026F9401BA042FAD370BD100000205F
:100B20002DE9F84FDFF8F8A10022012403254FF04A
:100B30000F090AF1040BAAF1040E00BF0B6804FAB6
:100B400002F63340B34270D10F7907F00307012F4B
:100B500001D0022F16D187684FEA420805FA08FC37
:100B600027EA0C07D1F80CC00CFA08FC4CEA070C79
:100B7000C0F808C04768B7430E79C6F30016964020
:100B80003E4346600E79F643B6070AD0C7684FEA7F
:100B9000420C05FA0CF6B7438E6806FA0CF63E4393
:100BA000C6600E7906F00306022E10D1D60800EBBF
:100BB0008608D8F8206057074FEAD76C09FA0CF777
:100BC000BE430F6907FA0CF73743C8F82070066870
:100BD0004FEA420C05FA0CF7BE430F7907F0030702
:100BE00007FA0CF7374307604E6816F4403F1CD0F5
:100BF0004C4E376847F480473760366822F0030769
:100C000006F480460096484E07EB060CDCF80868B0
:100C100097073F0F09FA07F826EA0806DFF80C8164
:100C2000404503D14FF0000841E072E0DFF8008159
:100C3000404502D14FF0010839E0DFF8F880404527
:100C400002D14FF0020832E0DFF8EC80404502D1DB
:100C50004FF003082BE0DFF8E480404502D14FF06D
:100C6000040824E0DFF8D880404502D14FF00508A1
:100C70001DE0DFF8D080404502D14FF0060816E0B5
:100C8000DFF8C480404502D14FF007080FE0DFF8DD
:100C9000BC80404502D14FF0080808E0DFF8B08082
:100CA000404502D14FF0090801E04FF00A0808FA68
:100CB00007F848EA0608CCF80888DAF800605746D2
:100CC000D1F804C09E435FEACC2C00D51E433E60A1
:100CD000DBF800605F46D1F804C09E435FEA8C2CCD
:100CE00000D51E433E60DEF800607746D1F804C0B0
:100CF0009E435FEA8C3C00D51E433E60084F083F90
:100D00003E68D1F804C09E435FEACC3C00D51E4348
:100D10003E60521C102AFFF411AFBDE8F88F0000AE
:100D2000083C0140443802400030014000000240CD
:100D30000004024000080240000C02400010024083
:100D40000014024000180240001C02400020024033
:100D5000002402400AB1816170470904FBE70000EA
:100D60000148806870470000100000200248816838
:100D70000278114481607047100000200B4810B5C4
:100D8000016841F400710160016841F48061016013
:100D9000016841F480710160032000F06FF80F20BA
:100DA00000F006F800F024F8002010BD003C0240DE
:100DB00070B50D4D04464FF47A712878B1FBF0F010
:100DC0000A490968B1FBF0F000F0ECFA48B9102CC0
:100DD00007D200222146501E00F030F800206C603F
:100DE00070BD012070BD0000100000201C0000201C
:100DF0000A4808B5016841F480410160006800F4C8
:100E0000804000900548001F016841F0805101605A
:100E1000006800F08050009008BD00004438024097
:100E2000002809DB00F01F020121914040098000E9
:100E300000F1E020C0F8001170470000F0B40E4B44
:100E40001B680C46C3F30223C3F10705042D00D928
:100E50000425191D072901D2002300E0DB1E01260D
:100E600006FA05F1491E214099409E40761E164023
:100E70003143F0BC00F0BEBB0CED00E0064900F0D1
:100E8000070208684FF6FF03184040EA0220034AB1
:100E900010430860704700000CED00E00000FA0508
:100EA0002DE9F0470E46050065D0DFF81481D8F82B
:100EB0000000F7B200F00F00B04207D288F80070CF
:100EC000D8F8000000F00F00B04254D128683D4C23
:100ED000810712D5400703D5206840F4E050206018
:100EE0002878000703D5206840F46040206020681F
:100EF000A96820F0F000084320602878C0072DD0B2
:100F0000304968680839012812D0022813D0032814
:100F100011D00968890700292DDA216821F0030121
:100F200001432160FFF71CFF814641F2883A0EE041
:100F300009688903EFE709688901ECE7FFF710FF0B
:100F4000A0EB0901514502D90320BDE8F0872068D4
:100F5000696800F00C00B0EB810FEFD1D8F80010F9
:100F6000404601F00F01B14207D90770006800F058
:100F70000F00B04201D00120E7E72878400705D5EF
:100F80002068E96820F4E0500843206028780007D2
:100F900006D52068296920F4604040EAC10020603D
:100FA00000F018F82168084AC1F30311515CC840E9
:100FB0000649086006480068FFF7FAFE0020C4E70B
:100FC000003C024008380240DC1A00081C000020E7
:100FD00014000020154810B5006810F00C021448E9
:100FE00013D01449042A0FD0082A0ED10F4C241F05
:100FF0002268236802F03F025B0207D52068C0F335
:101000008810A0FB010106E0084610BD2168C1F36D
:101010008811A1FB00010023FFF7E4F82168C1F368
:101020000141491C4900B0FBF1F010BD08380240F5
:101030000024F400001BB7002DE9F84F04006ED027
:101040002078DFF84C93C007A9F104054AD009F1D4
:1010500004000168C1F38101012908D00068C0F3D0
:10106000810002280AD1D9F80000400206D528687C
:10107000800337D560680028E1D033E06068B0F5C0
:10108000803F10D0B0F5A02F286810D020F4803019
:101090002860286820F4802028606068A8B1FFF7E5
:1010A0005FFE06460DE0286840F48030F4E740F427
:1010B00080202860F7E700BFFFF752FE801B6428FE
:1010C00073D828688003F7D50CE0FFF749FE064681
:1010D00005E000BFFFF744FE801B6428F0D82868B5
:1010E0008003F7D42078DFF8AC8280074FF0000A45
:1010F0003ED5A748001D016811F00C0F08D000680C
:10110000C0F3810002280BD1D9F80000400207D4B7
:101110002868800716D5E068012800D112E033E185
:10112000E068B8B10120C8F80000FFF719FE0646D4
:1011300005E000BFFFF714FE801B0228C0D8286816
:101140008007F7D52868216920F0F80040EAC1003F
:1011500028600DE0C8F800A0FFF702FE064604E094
:10116000FFF7FEFD801B02281FD828688007F7D4F0
:101170002078000722D5864F87486169703771B1A2
:1011800001210160FFF7ECFD064604E0FFF7E8FDF2
:10119000801B022809D838688007F7D50EE0C0F810
:1011A00000A0FFF7DDFD064605E082E0FFF7D8FD71
:1011B000801B02287DD838688007F7D42078400744
:1011C00068D5DFF8CCB100270BF13C0BDBF8000051
:1011D000C0000BD4DBF8001041F08051CBF80010B8
:1011E000DBF80000012700F0805000906B4E306863
:1011F000C00510D4306840F480703060FFF7B0FD57
:10120000009005E0FFF7ACFD0099401A022850D885
:101210003068C005F6D55E4EA0686C3601280FD048
:101220000528306810D020F001003060306820F0D0
:1012300004003060A068B8B1FFF792FD00900FE0A5
:10124000306840F00100F4E740F004003060F7E758
:10125000FFF786FD0099411A41F28830814266D835
:1012600030688007F4D50EE0FFF77AFD009007E0C4
:10127000FFF776FD0099411A41F28830814256D835
:1012800030688007F4D42FB1DBF8001021F08051D2
:10129000CBF80010A069C8B33D49091D0968C1F326
:1012A000810102294AD00228504607D0C8F86000C0
:1012B00000E03CE0FFF754FD04463BE04746C8F839
:1012C0006000FFF74DFD064605E000BFFFF748FD53
:1012D000801B02282BD828688001F7D4D4E90701A5
:1012E0000843A16A2E4A490802EB0141626A41EAB9
:1012F0008211084394F82C1040EA0161C9F80010EB
:1013000001203866FFF72CFD044606E03EE000BFF2
:10131000FFF726FD001B022809D828688001F7D5B1
:1013200034E000BFFFF71CFD001B022802D9032098
:10133000BDE8F88F28688001F4D427E00128F7D0B1
:10134000D9F80000E26900F4800191421CD1226AC0
:1013500000F03F01914217D147F6C071626A014027
:10136000B1EB821F10D1A26A4FF0FF3300F440317D
:1013700003EB5202B1EB024F06D194F82C1000F0AF
:101380007060B0EB016F01D00120D1E70020CFE702
:101390000438024000004742800E4742007000407F
:1013A0000000FFFF10B5401EB0F1807F01D3012087
:1013B00010BD4FF0E02460610F21601700F01AF9B2
:1013C0000020A06107202061002010BDFEE7000082
:1013D0000F4810B50D4901600321416000214FF411
:1013E00010228160C0E903124FF4001242610176BD
:1013F00041768176C17601774177FFF70CFA0028B4
:1014000003D0BDE81040FEF794BF10BD006400405B
:10141000200200200F4810B50D49016003214160F2
:1014200000214FF410228160C0E903124FF4001232
:101430004261017641768176C17601774177FFF787
:10144000EAF9002803D0BDE81040FEF772BF10BDD6
:10145000006800404802002030B587B0142168467B
:10146000FEF7F8FE19480024016841F0010101600F
:10147000016801F001010591016841F00801016076
:10148000016801F008010591016841F080010160E7
:10149000016801F080010591016841F002010160DD
:1014A00000680B4D00F00200059000223C21284608
:1014B000FFF750FC3C2000900120CDE90104694673
:1014C00028460394FFF72CFB07B030BD30380240AC
:1014D000001C0240FEE7FEE770477047FFF746BC7E
:1014E00030B593B030216846FEF7B4FE14210CA845
:1014F000FEF7B0FE1D480025016841F080510160F3
:10150000006800F0805011901948016841F4404192
:1015100001600068022400F4404011900120009016
:10152000000401908001CDE9064006200890A82023
:10153000CDE9090404200B906846FFF77DFD08B152
:1015400072B6FEE70CA90F2081E831004FF4A050DD
:101550000F904FF48050109005210CA8FFF7A0FCCD
:10156000002801D072B6FEE713B030BD403802400B
:10157000007000400248016841F47001016070474A
:1015800088ED00E0FEE70000184A1949D2ED012A73
:1015900091ED012A92ED003AD1ED000AD2ED021A46
:1015A00091ED021A88B1012814D0D1ED000A11463C
:1015B000022891ED003A63EE200A12D003280FD1E1
:1015C000B0EE600A02EE820A08E022EE820A03EE22
:1015D000600A03E023EE600A02EEC20A01EE210A6D
:1015E000704742EEC20AB0EE600AF7E7140200202C
:1015F000000000200907090E002804DB00F1E020AC
:1016000080F80014704700F00F0000F1E02080F82F
:10161000141D704702E008C8121F08C1002AFAD141
:1016200070477047002001E001C1121F002AFBD162
:101630007047000000B58BB000200121CDE9060104
:1016400008910090019002900390059004906946E3
:101650000C48FEF7E1FE0B48FFF71CFA022109488F
:10166000FEF769FE0E200990059069460648FEF7D0
:10167000D3FE0548FFF70EFA02210348FEF75BFE92
:101680000BB000BD2002002048020020D0ED0B1A54
:1016900090ED0D0A90ED0C1A71EE800A90ED0A0A99
:1016A00030EE210A30EE010AB5EEC00AF1EE10FA72
:1016B00001DCB1EE400A90ED112A9FED141AB4EE50
:1016C000C20AF1EE10FA0ADD90ED080A20EE210AB6
:1016D000B5EEC00AF1EE10FA01DD80ED0D1A90EDC5
:1016E000120AB4EEE00AF1EE10FA03D280ED0D1A00
:1016F00080ED0B0AB1EE400AB4EEE00AF1EE10FA0A
:1017000003DD80ED0D1A80ED0B0A7047000000002C
:1017100010B50188B0F90830CA1A994202DA02F508
:10172000005101E0A2F50051002901DD0B4600E067
:101730004B42002A01DD144600E05442A34200DB84
:101740001146C2681144C1600188018110BD0000CA
:101750002DED088BFFF712FBFFF7C2FEFFF77CFEB3
:10176000FFF736FEFFF756FEFFF764FF434C0122FA
:1017700004212046FFF7EEFA012208212046FFF758
:10178000E9FA012210212046FFF7E4FA0122202184
:101790002046FFF7DFFA9FED3AAA9FED3A8ADFED88
:1017A0003AAA9FED3ABADFED3A9ADFED3A8A9FED19
:1017B0003A9A3A4C002500BF00F07AF9C5EB0510C3
:1017C00004EBC006304600F04FF92846FFF7DCFE78
:1017D000B0EE691AF0EE402A5322F36E3046B0EEB6
:1017E0004A4AF0EE483AB0EE6A3AB0EE4B2AF0EED2
:1017F000411AF0EE680AB0EE490A012198476D1CC3
:10180000042DD9DB0A20FFF779F9254E5FF000059A
:1018100000F04EF906EB0510B0F9020000EE100AD8
:10182000C5EB051004EBC000B8EEC00A416F884755
:101830006D1C042DECDB94ED690ABDEEC00A10EEC0
:10184000100A94ED4B0A03B2BDEEC00A10EE100A66
:1018500094ED2D0A02B2BDEEC00A10EE100A94ED0E
:101860000F0A01B2BDEEC00A10EE100A00B2FEF778
:101870003BFD0520FFF742F9C8E70000001C0240CD
:10188000CDCCCC3D77BE1F3DA470BD3F0000484489
:101890000000000000409C4500007A463400002013
:1018A0007002002010B504462DED028BB0EE408A88
:1018B000FFF756FA2066616E401A00EE100AF8EE45
:1018C000400AC4ED1A0A84ED068A94ED010A30EE4E
:1018D000480A84ED080AB5EEC00AF1EE10FA02DDFE
:1018E000B0EE401A01E0B1EE401AD4ED131AB4EE96
:1018F000E11AF1EE10FA7DDD94ED031A21EE003AC3
:1019000084ED0A3AD4ED042A22EE801A21EE201A40
:1019100084ED0D1AD4ED091AD4ED053A30EE612AA2
:1019200062EE233A83EEA02A84ED0C2AD4ED0B3A22
:1019300033EE811A84ED0B1A33EE011A31EE021ADE
:1019400084ED0F1A607841070BD530EE210AB6EE10
:10195000001A20EE010A20EE220A20EE200A84ED71
:101960000D0AC00702D02046FFF790FE607881077D
:101970000FD594ED070AD4ED060A30EE600AD4EDD7
:10198000050A20EE200AD4ED1A0A80EE201A84ED12
:101990000C1AC10615D594ED0F0AD4ED1A0A20EEE3
:1019A000201A94ED170A70EE200AC1EE201A94ED69
:1019B000101A21EE000A80EE201A31EE810A84ED21
:1019C0000F0A400615D594ED0C0AD4ED1A0A60EE04
:1019D000201A94ED160A70EE200A81EEA01AD4EDBA
:1019E0000E1A21EE800AC0EE201A31EE210A84ED93
:1019F0000C0A00E02BE0D4ED0F0A94ED110AF4EE8E
:101A0000C00AF1EE10FA01DD84ED0F0AD4ED0F0AE1
:101A1000B1EE400AF4EEC00AF1EE10FA02D200BFB5
:101A200084ED0F0A94ED080A84ED090A94ED0F0A7B
:101A300084ED100AD4ED0C0AC4ED0E0AD4ED060AAA
:101A4000C4ED070A206E6066BDEC028B10BD9FEDF1
:101A5000050A84ED080A84ED0A0A84ED0B0A84ED78
:101A60000C0ADDE7000000000349C1660349016775
:101A70000349416770470000851A0008A91A000849
:101A8000A51800080170C0ED012A00F1440383ECA1
:101A9000050A383B9FED030A80ED0F0A83EC033AF9
:101AA00042707047000000000C3080EC030A704761
:101AB00007489FED060A80ED000A9FED060A80EDBB
:101AC000010A9FED050A80ED020A70470000C84236
:101AD000140200200000C8C2000000000000000046
:101AE0000000000001020304060708090C1B00089F
:101AF000000000203400000014160008401B0008FD
:101B000034000020DC06000024160008F304B53F72
:101B1000F304B53F0000C8430000000001000000CE
:101B200010000000000000000024F400000000008D
:101B300000000000000000000000000000000000A5
:04000005080001AD41
:00000001FF
